T2019989945688TRANSMITTER NAME                        RENNWEG 97                              VIENNA                  AU1030     TRANSMITTER CONTACT PERSON              0043240562                                                                                                                                                                                                                                                                                                                                                                                                                                                                                                                                                                                                                                                                                                                                                                                                                                                               00000001  
W009899456771WITHHOLDING AGENT COMPANY NAME                                                                                          RENNWEG 97 1 13                                                                 VIENNA                                      AU1030     2019WITHHOLDING AGENT CONTACT PERSON             WITHHOLDING AGENT DEPARTMENT                 0043240567          03123333.12345.SL.977                                                                                                                                                                                                                                                                                                                                                                                                                                                                                                                                                                                                                               00000002  
Q0006000000000333000000000000000000000000100000US000015    000000000000CRS202809             YELLOW JNR. NATHAN                                                                                                      5 CENTRAL PARK WEST                                                             NEW YORK                                NY  US10018    952476982 000000000033000000000000000000000033                                                                                                                                                                                                                                                                                                                                 000000000000                                                        3 1623                             000000000000                                                                                                                                                             1900000003             00000003  
Q00060000000023140000000000000000000000002400  US000015    000000000000CRS202809             YELLOW JNR. NATHAN                                                                                                      5 CENTRAL PARK WEST                                                             NEW YORK                                NY  US10018    952476982 000000000555000000000000000000000555                                                                                                                                                                                                                                                                                                                                 000000000000                                                        3 1623                             000000000000                                                                                                                                                             1900000001             00000004  
Q00060000000023140000000000000000000000002800  US000015    000000000000CRS202809             YELLOW JNR. NATHAN                                                                                                      5 CENTRAL PARK WEST                                                             NEW YORK                                NY  US10018    952476982 000000000666000000000000000000000666                                                                                                                                                                                                                                                                                                                                 000000000000                                                        3 1623                             000000000000                                                                                                                                                             1900000002             00000005  
C00000003      000000000004961000000000001254                                                                                                                                                                                                                                                                                                                                                                                                                                                                                                                                                                                                                                                                                                                                                                                                                                                                                                                                                                                                     00000006  
F001                                                                                                                                                                                                                                                                                                                                                                                                                                                                                                                                                                                                                                                                                                                                                                                                                                                                                                                                                                                                                                              00000007  
