T2019999959999AUT TRANSMITTER                                                                                         AU                                                                                                                                                                                                                                                                                                                                                                                                                                                                                                                                                                                                                                                                                                                                                                                                                                                                                                                          00000001  
W009999599990ABC                                                                                                                                                                                                                                                 AU         2019                                                                                                              036RST21.99999.SL.162                                                                                                                                 1206                                                                                                                                                                                                                                                                                                                                                                                                                                                                                          00000002  
Q0001000000007899000000000000000000000000100000  000015    000000000000ACC202100             GOLDEN STATE BANK                                                                                                       RENNGASSE 1                                                                     VIENNA                                      AU1010     135489542 000000000790000000000000000000000790                                                                                                                                                                                                                                                                                                                                 000000000000                                                        3 1240                             000000000000                                                                                                                                                             1900000013             00000003  
Q0001000000007893000000000000000000000000100000  000015    000000000000ACC202300             WAYNE ENTERPRISES BANK                                                                                                  RENNGASSE 2                                                                     VIENNA                                      AU1010     125487564 000000000798000000000000000000000798                                                                                                                                                                                                                                                                                                                                 000000000000                                                        3 1240                             000000000000                                                                                                                                                             1900000014             00000004  
Q0001000000009982000000000000000000000000100000  000015    000000000000ACC202900             WORLDCOM BANK                                                                                                           RENNGASSE 4                                                                     VIENNA                                      AU1010     154258741 000000000998000000000000000000000998                                                                                                                                                                                                                                                                                                                                 000000000000                                                        3 1240                             000000000000                                                                                                                                                             1900000016             00000005  
Q0001000000002168000000000000000000000000100000  000015    000000000000ACC201100             T-SYSTEMS LTD.                                                                                                          HAUPTSTRASSE 224                                                                BERLIN                                      GM10301    852147963 000000000217000000000000000000000217                                                                                                                                                                                                                                                                                                                                 000000000000                                                        3 1540                             000000000000                                                                                                                                                             1900000006             00000006  
Q0001000000005234000000000000000000000000100000  000015    000000000000ACC201200             SKYNET UNLIMITED LTD.                                                                                                   KREUZBERGWEG 132                                                                BERLIN                                      GM10260    541289763 000000000523000000000000000000000523                                                                                                                                                                                                                                                                                                                                 000000000000                                                        3 1540                             000000000000                                                                                                                                                             1900000007             00000007  
Q0001000000007895000000000000000000000000100000  000015    000000000000ACC201400             BLACK & WHITE LTD.                                                                                                      RAINERGASSE 2                                                                   VIENNA                                      AU1040     154987532 000000000790000000000000000000000790                                                                                                                                                                                                                                                                                                                                 000000000000                                                        3 1540                             000000000000                                                                                                                                                             1900000008             00000008  
Q0001000000006252000000000000000000000000100000  000015    000000000000ACC201500             STARK INDUSTRIES LTD.                                                                                                   KETZERGASSE1                                                                    VIENNA                                      AU1230     465824679 000000000625000000000000000000000625                                                                                                                                                                                                                                                                                                                                 000000000000                                                        3 1540                             000000000000                                                                                                                                                             1900000009             00000009  
Q0001000000013633000000000000000000000000100000  000015    000000000000ACC201600             BURNSBANKING                                                                                                            HAUPTSTRASSE 10                                                                 LINZ                                        AU4041     258259637 000000001364000000000000000000001364                                                                                                                                                                                                                                                                                                                                 000000000000                                                        3 1540                             000000000000                                                                                                                                                             1900000010             00000010  
Q0001000000004982000000000000000000000000100000  000015    000000000000ACC201800             BUBBA GUMP SHRIMP CORP.                                                                                                 AM HOF 13                                                                       VIENNA                                      AU1010     125452897 000000000498000000000000000000000498                                                                                                                                                                                                                                                                                                                                 000000000000                                                        3 1540                             000000000000                                                                                                                                                             1900000011             00000011  
Q0001000000008949000000000000000000000000100000  000015    000000000000ACC202000             GEKKO & CO.                                                                                                             RENNGASSE 3                                                                     VIENNA                                      AU1010     15697543  000000000895000000000000000000000895                                                                                                                                                                                                                                                                                                                                 000000000000                                                        3 1540                             000000000000                                                                                                                                                             1900000012             00000012  
Q0001000000003485000000000000000000000000100000  000015    000000000000ACC202700             HAMILTON LEWIS                                                                                                          PARKROAD STREET                                                                 BIRMINGHAM                                  UK78825              000000000349000000000000000000000349                                                                                                                                                                                                                                                                                                                                 000000000000                                                        3 1623                             000000000000                                                                                                                                                             1900000015             00000013  
Q0001000000001385000000000000000000000000100000  000015    000000000000ACC203000             GRINGOTTS BANK.                                                                                                         RENNWEG 97                                                                      VIENNA                                      AU1010               000000000139000000000000000000000139                                                                                                                                                                                                                                                                                                                                 000000000000                                                        3 2547                             000000000000                                                                                                                                                             1900000001             00000014  
Q0001000000009841000000000000000000000000100000  000015    000000000000ACC203200             GRINGOTTS BANK.                                                                                                         RENNWEG 97                                                                      VIENNA                                      AU1010               000000000984000000000000000000000984                                                                                                                                                                                                                                                                                                                                 000000000000                                                        3 2547                             000000000000                                                                                                                                                             1900000003             00000015  
Q0001000000001582000000000000000000000000100000  000015    000000000000                      UNKNOWN RECIPIENT                                                                                                                                                                                                                                                        000000000158000000000000000000000158      GRINGOTTS BANK.                                                                                                           RENNWEG 97                                                                      VIENNA                                      AU1010                                                               000000000000                                                        3 21                               000000000000                   2547                                                                                                                                      1900000002             00000016  
Q0040000000003548000000000000000000000000100000FR000015    000000000000ACC204600             RONALD GRUMP                                                                                                            RUE DES RICHES 19                                                               PARIS                                       FR53111              000000000355000000000000000000000355                                                                                                                                                                                                                                                                                                                                 000000000000                                                        3 1623                             000000000000                                                                                                                                                             1900000004             00000017  
Q0001000000013633000000000000000000000000100000  000015    000000000000ACC201600             BURNSBANKING                                                                                                            HAUPTSTRASSE 10                                                                 LINZ                                        AU4041     258259637 000000001364000000000000000000001364                                                                                                                                                                                                                                                                                                                                 000000000000                                                        3 1540                             000000000000                                                                                                                                                             1900000010             00000010  
Q0001000000004982000000000000000000000000100000  000015    000000000000ACC201800             BUBBA GUMP SHRIMP CORP.                                                                                                 AM HOF 13                                                                       VIENNA                                      AU1010     125452897 000000000498000000000000000000000498                                                                                                                                                                                                                                                                                                                                 000000000000                                                        3 1540                             000000000000                                                                                                                                                             1900000011             00000011  
Q0001000000008949000000000000000000000000100000  000015    000000000000ACC202000             GEKKO & CO.                                                                                                             RENNGASSE 3                                                                     VIENNA                                      AU1010     15697543  000000000895000000000000000000000895                                                                                                                                                                                                                                                                                                                                 000000000000                                                        3 1540                             000000000000                                                                                                                                                             1900000012             00000012  
Q0001000000003485000000000000000000000000100000  000015    000000000000ACC202700             HAMILTON LEWIS                                                                                                          PARKROAD STREET                                                                 BIRMINGHAM                                  UK78825              000000000349000000000000000000000349                                                                                                                                                                                                                                                                                                                                 000000000000                                                        3 1623                             000000000000                                                                                                                                                             1900000015             00000013  
Q0001000000001385000000000000000000000000100000  000015    000000000000ACC203000             GRINGOTTS BANK.                                                                                                         RENNWEG 97                                                                      VIENNA                                      AU1010               000000000139000000000000000000000139                                                                                                                                                                                                                                                                                                                                 000000000000                                                        3 2547                             000000000000                                                                                                                                                             1900000001             00000014  
Q0001000000009841000000000000000000000000100000  000015    000000000000ACC203200             GRINGOTTS BANK.                                                                                                         RENNWEG 97                                                                      VIENNA                                      AU1010               000000000984000000000000000000000984                                                                                                                                                                                                                                                                                                                                 000000000000                                                        3 2547                             000000000000                                                                                                                                                             1900000003             00000015  
Q0001000000001582000000000000000000000000100000  000015    000000000000                      UNKNOWN RECIPIENT                                                                                                                                                                                                                                                        000000000158000000000000000000000158      GRINGOTTS BANK.                                                                                                           RENNWEG 97                                                                      VIENNA                                      AU1010                                                               000000000000                                                        3 21                               000000000000                   2547                                                                                                                                      1900000002             00000016  
Q0040000000003548000000000000000000000000100000FR000015    000000000000ACC204600             RONALD GRUMP                                                                                                            RUE DES RICHES 19                                                               PARIS                                       FR53111              000000000355000000000000000000000355                                                                                                                                                                                                                                                                                                                                 000000000000                                                        3 1623                             000000000000                                                                                                                                                             1900000004             00000017  
Q0001000000013633000000000000000000000000100000  000015    000000000000ACC201600             BURNSBANKING                                                                                                            HAUPTSTRASSE 10                                                                 LINZ                                        AU4041     258259637 000000001364000000000000000000001364                                                                                                                                                                                                                                                                                                                                 000000000000                                                        3 1540                             000000000000                                                                                                                                                             1900000010             00000010  
Q0001000000004982000000000000000000000000100000  000015    000000000000ACC201800             BUBBA GUMP SHRIMP CORP.                                                                                                 AM HOF 13                                                                       VIENNA                                      AU1010     125452897 000000000498000000000000000000000498                                                                                                                                                                                                                                                                                                                                 000000000000                                                        3 1540                             000000000000                                                                                                                                                             1900000011             00000011  
Q0001000000008949000000000000000000000000100000  000015    000000000000ACC202000             GEKKO & CO.                                                                                                             RENNGASSE 3                                                                     VIENNA                                      AU1010     15697543  000000000895000000000000000000000895                                                                                                                                                                                                                                                                                                                                 000000000000                                                        3 1540                             000000000000                                                                                                                                                             1900000012             00000012  
Q0001000000003485000000000000000000000000100000  000015    000000000000ACC202700             HAMILTON LEWIS                                                                                                          PARKROAD STREET                                                                 BIRMINGHAM                                  UK78825              000000000349000000000000000000000349                                                                                                                                                                                                                                                                                                                                 000000000000                                                        3 1623                             000000000000                                                                                                                                                             1900000015             00000013  
Q0001000000001385000000000000000000000000100000  000015    000000000000ACC203000             GRINGOTTS BANK.                                                                                                         RENNWEG 97                                                                      VIENNA                                      AU1010               000000000139000000000000000000000139                                                                                                                                                                                                                                                                                                                                 000000000000                                                        3 2547                             000000000000                                                                                                                                                             1900000001             00000014  
Q0001000000009841000000000000000000000000100000  000015    000000000000ACC203200             GRINGOTTS BANK.                                                                                                         RENNWEG 97                                                                      VIENNA                                      AU1010               000000000984000000000000000000000984                                                                                                                                                                                                                                                                                                                                 000000000000                                                        3 2547                             000000000000                                                                                                                                                             1900000003             00000015  
Q0001000000001582000000000000000000000000100000  000015    000000000000                      UNKNOWN RECIPIENT                                                                                                                                                                                                                                                        000000000158000000000000000000000158      GRINGOTTS BANK.                                                                                                           RENNWEG 97                                                                      VIENNA                                      AU1010                                                               000000000000                                                        3 21                               000000000000                   2547                                                                                                                                      1900000002             00000016  
Q0040000000003548000000000000000000000000100000FR000015    000000000000ACC204600             RONALD GRUMP                                                                                                            RUE DES RICHES 19                                                               PARIS                                       FR53111              000000000355000000000000000000000355                                                                                                                                                                                                                                                                                                                                 000000000000                                                        3 1623                             000000000000                                                                                                                                                             1900000004             00000017  
Q0001000000013633000000000000000000000000100000  000015    000000000000ACC201600             BURNSBANKING                                                                                                            HAUPTSTRASSE 10                                                                 LINZ                                        AU4041     258259637 000000001364000000000000000000001364                                                                                                                                                                                                                                                                                                                                 000000000000                                                        3 1540                             000000000000                                                                                                                                                             1900000010             00000010  
Q0001000000004982000000000000000000000000100000  000015    000000000000ACC201800             BUBBA GUMP SHRIMP CORP.                                                                                                 AM HOF 13                                                                       VIENNA                                      AU1010     125452897 000000000498000000000000000000000498                                                                                                                                                                                                                                                                                                                                 000000000000                                                        3 1540                             000000000000                                                                                                                                                             1900000011             00000011  
Q0001000000008949000000000000000000000000100000  000015    000000000000ACC202000             GEKKO & CO.                                                                                                             RENNGASSE 3                                                                     VIENNA                                      AU1010     15697543  000000000895000000000000000000000895                                                                                                                                                                                                                                                                                                                                 000000000000                                                        3 1540                             000000000000                                                                                                                                                             1900000012             00000012  
Q0001000000003485000000000000000000000000100000  000015    000000000000ACC202700             HAMILTON LEWIS                                                                                                          PARKROAD STREET                                                                 BIRMINGHAM                                  UK78825              000000000349000000000000000000000349                                                                                                                                                                                                                                                                                                                                 000000000000                                                        3 1623                             000000000000                                                                                                                                                             1900000015             00000013  
Q0001000000001385000000000000000000000000100000  000015    000000000000ACC203000             GRINGOTTS BANK.                                                                                                         RENNWEG 97                                                                      VIENNA                                      AU1010               000000000139000000000000000000000139                                                                                                                                                                                                                                                                                                                                 000000000000                                                        3 2547                             000000000000                                                                                                                                                             1900000001             00000014  
Q0001000000009841000000000000000000000000100000  000015    000000000000ACC203200             GRINGOTTS BANK.                                                                                                         RENNWEG 97                                                                      VIENNA                                      AU1010               000000000984000000000000000000000984                                                                                                                                                                                                                                                                                                                                 000000000000                                                        3 2547                             000000000000                                                                                                                                                             1900000003             00000015  
Q0001000000001582000000000000000000000000100000  000015    000000000000                      UNKNOWN RECIPIENT                                                                                                                                                                                                                                                        000000000158000000000000000000000158      GRINGOTTS BANK.                                                                                                           RENNWEG 97                                                                      VIENNA                                      AU1010                                                               000000000000                                                        3 21                               000000000000                   2547                                                                                                                                      1900000002             00000016  
Q0040000000003548000000000000000000000000100000FR000015    000000000000ACC204600             RONALD GRUMP                                                                                                            RUE DES RICHES 19                                                               PARIS                                       FR53111              000000000355000000000000000000000355                                                                                                                                                                                                                                                                                                                                 000000000000                                                        3 1623                             000000000000                                                                                                                                                             1900000004             00000017  
Q0001000000013633000000000000000000000000100000  000015    000000000000ACC201600             BURNSBANKING                                                                                                            HAUPTSTRASSE 10                                                                 LINZ                                        AU4041     258259637 000000001364000000000000000000001364                                                                                                                                                                                                                                                                                                                                 000000000000                                                        3 1540                             000000000000                                                                                                                                                             1900000010             00000010  
Q0001000000004982000000000000000000000000100000  000015    000000000000ACC201800             BUBBA GUMP SHRIMP CORP.                                                                                                 AM HOF 13                                                                       VIENNA                                      AU1010     125452897 000000000498000000000000000000000498                                                                                                                                                                                                                                                                                                                                 000000000000                                                        3 1540                             000000000000                                                                                                                                                             1900000011             00000011  
Q0001000000008949000000000000000000000000100000  000015    000000000000ACC202000             GEKKO & CO.                                                                                                             RENNGASSE 3                                                                     VIENNA                                      AU1010     15697543  000000000895000000000000000000000895                                                                                                                                                                                                                                                                                                                                 000000000000                                                        3 1540                             000000000000                                                                                                                                                             1900000012             00000012  
Q0001000000003485000000000000000000000000100000  000015    000000000000ACC202700             HAMILTON LEWIS                                                                                                          PARKROAD STREET                                                                 BIRMINGHAM                                  UK78825              000000000349000000000000000000000349                                                                                                                                                                                                                                                                                                                                 000000000000                                                        3 1623                             000000000000                                                                                                                                                             1900000015             00000013  
Q0001000000001385000000000000000000000000100000  000015    000000000000ACC203000             GRINGOTTS BANK.                                                                                                         RENNWEG 97                                                                      VIENNA                                      AU1010               000000000139000000000000000000000139                                                                                                                                                                                                                                                                                                                                 000000000000                                                        3 2547                             000000000000                                                                                                                                                             1900000001             00000014  
Q0001000000009841000000000000000000000000100000  000015    000000000000ACC203200             GRINGOTTS BANK.                                                                                                         RENNWEG 97                                                                      VIENNA                                      AU1010               000000000984000000000000000000000984                                                                                                                                                                                                                                                                                                                                 000000000000                                                        3 2547                             000000000000                                                                                                                                                             1900000003             00000015  
Q0001000000001582000000000000000000000000100000  000015    000000000000                      UNKNOWN RECIPIENT                                                                                                                                                                                                                                                        000000000158000000000000000000000158      GRINGOTTS BANK.                                                                                                           RENNWEG 97                                                                      VIENNA                                      AU1010                                                               000000000000                                                        3 21                               000000000000                   2547                                                                                                                                      1900000002             00000016  
Q0040000000003548000000000000000000000000100000FR000015    000000000000ACC204600             RONALD GRUMP                                                                                                            RUE DES RICHES 19                                                               PARIS                                       FR53111              000000000355000000000000000000000355                                                                                                                                                                                                                                                                                                                                 000000000000                                                        3 1623                             000000000000                                                                                                                                                             1900000004             00000017  
Q0001000000016786000000000000000000000000100000AU000015    000000000000                      WITHHOLDING RATE POOL GENERAL                                                                                                                                                                                                                       AU                   000000001679000000000000000000001679                                                                                                                                                                                                                                                                                                                                 000000000000                                                        3 2748                             000000000000                                                                                                                                                             1900000005             00000018  
Q0001000000007899000000000000000000000000100000  000015    000000000000ACC202100             GOLDEN STATE BANK                                                                                                       RENNGASSE 1                                                                     VIENNA                                      AU1010     135489542 000000000790000000000000000000000790                                                                                                                                                                                                                                                                                                                                 000000000000                                                        3 1240                             000000000000                                                                                                                                                             1900000013             00000003  
Q0001000000007893000000000000000000000000100000  000015    000000000000ACC202300             WAYNE ENTERPRISES BANK                                                                                                  RENNGASSE 2                                                                     VIENNA                                      AU1010     125487564 000000000798000000000000000000000798                                                                                                                                                                                                                                                                                                                                 000000000000                                                        3 1240                             000000000000                                                                                                                                                             1900000014             00000004  
Q0001000000009982000000000000000000000000100000  000015    000000000000ACC202900             WORLDCOM BANK                                                                                                           RENNGASSE 4                                                                     VIENNA                                      AU1010     154258741 000000000998000000000000000000000998                                                                                                                                                                                                                                                                                                                                 000000000000                                                        3 1240                             000000000000                                                                                                                                                             1900000016             00000005  
Q0001000000002168000000000000000000000000100000  000015    000000000000ACC201100             T-SYSTEMS LTD.                                                                                                          HAUPTSTRASSE 224                                                                BERLIN                                      GM10301    852147963 000000000217000000000000000000000217                                                                                                                                                                                                                                                                                                                                 000000000000                                                        3 1540                             000000000000                                                                                                                                                             1900000006             00000006  
Q0001000000005234000000000000000000000000100000  000015    000000000000ACC201200             SKYNET UNLIMITED LTD.                                                                                                   KREUZBERGWEG 132                                                                BERLIN                                      GM10260    541289763 000000000523000000000000000000000523                                                                                                                                                                                                                                                                                                                                 000000000000                                                        3 1540                             000000000000                                                                                                                                                             1900000007             00000007  
Q0001000000007895000000000000000000000000100000  000015    000000000000ACC201400             BLACK & WHITE LTD.                                                                                                      RAINERGASSE 2                                                                   VIENNA                                      AU1040     154987532 000000000790000000000000000000000790                                                                                                                                                                                                                                                                                                                                 000000000000                                                        3 1540                             000000000000                                                                                                                                                             1900000008             00000008  
Q0001000000006252000000000000000000000000100000  000015    000000000000ACC201500             STARK INDUSTRIES LTD.                                                                                                   KETZERGASSE1                                                                    VIENNA                                      AU1230     465824679 000000000625000000000000000000000625                                                                                                                                                                                                                                                                                                                                 000000000000                                                        3 1540                             000000000000                                                                                                                                                             1900000009             00000009  
Q0001000000013633000000000000000000000000100000  000015    000000000000ACC201600             BURNSBANKING                                                                                                            HAUPTSTRASSE 10                                                                 LINZ                                        AU4041     258259637 000000001364000000000000000000001364                                                                                                                                                                                                                                                                                                                                 000000000000                                                        3 1540                             000000000000                                                                                                                                                             1900000010             00000010  
Q0001000000004982000000000000000000000000100000  000015    000000000000ACC201800             BUBBA GUMP SHRIMP CORP.                                                                                                 AM HOF 13                                                                       VIENNA                                      AU1010     125452897 000000000498000000000000000000000498                                                                                                                                                                                                                                                                                                                                 000000000000                                                        3 1540                             000000000000                                                                                                                                                             1900000011             00000011  
Q0001000000008949000000000000000000000000100000  000015    000000000000ACC202000             GEKKO & CO.                                                                                                             RENNGASSE 3                                                                     VIENNA                                      AU1010     15697543  000000000895000000000000000000000895                                                                                                                                                                                                                                                                                                                                 000000000000                                                        3 1540                             000000000000                                                                                                                                                             1900000012             00000012  
Q0001000000003485000000000000000000000000100000  000015    000000000000ACC202700             HAMILTON LEWIS                                                                                                          PARKROAD STREET                                                                 BIRMINGHAM                                  UK78825              000000000349000000000000000000000349                                                                                                                                                                                                                                                                                                                                 000000000000                                                        3 1623                             000000000000                                                                                                                                                             1900000015             00000013  
Q0001000000001385000000000000000000000000100000  000015    000000000000ACC203000             GRINGOTTS BANK.                                                                                                         RENNWEG 97                                                                      VIENNA                                      AU1010               000000000139000000000000000000000139                                                                                                                                                                                                                                                                                                                                 000000000000                                                        3 2547                             000000000000                                                                                                                                                             1900000001             00000014  
Q0001000000009841000000000000000000000000100000  000015    000000000000ACC203200             GRINGOTTS BANK.                                                                                                         RENNWEG 97                                                                      VIENNA                                      AU1010               000000000984000000000000000000000984                                                                                                                                                                                                                                                                                                                                 000000000000                                                        3 2547                             000000000000                                                                                                                                                             1900000003             00000015  
Q0001000000001582000000000000000000000000100000  000015    000000000000                      UNKNOWN RECIPIENT                                                                                                                                                                                                                                                        000000000158000000000000000000000158      GRINGOTTS BANK.                                                                                                           RENNWEG 97                                                                      VIENNA                                      AU1010                                                               000000000000                                                        3 21                               000000000000                   2547                                                                                                                                      1900000002             00000016  
Q0040000000003548000000000000000000000000100000FR000015    000000000000ACC204600             RONALD GRUMP                                                                                                            RUE DES RICHES 19                                                               PARIS                                       FR53111              000000000355000000000000000000000355                                                                                                                                                                                                                                                                                                                                 000000000000                                                        3 1623                             000000000000                                                                                                                                                             1900000004             00000017  
Q0001000000013633000000000000000000000000100000  000015    000000000000ACC201600             BURNSBANKING                                                                                                            HAUPTSTRASSE 10                                                                 LINZ                                        AU4041     258259637 000000001364000000000000000000001364                                                                                                                                                                                                                                                                                                                                 000000000000                                                        3 1540                             000000000000                                                                                                                                                             1900000010             00000010  
Q0001000000004982000000000000000000000000100000  000015    000000000000ACC201800             BUBBA GUMP SHRIMP CORP.                                                                                                 AM HOF 13                                                                       VIENNA                                      AU1010     125452897 000000000498000000000000000000000498                                                                                                                                                                                                                                                                                                                                 000000000000                                                        3 1540                             000000000000                                                                                                                                                             1900000011             00000011  
Q0001000000008949000000000000000000000000100000  000015    000000000000ACC202000             GEKKO & CO.                                                                                                             RENNGASSE 3                                                                     VIENNA                                      AU1010     15697543  000000000895000000000000000000000895                                                                                                                                                                                                                                                                                                                                 000000000000                                                        3 1540                             000000000000                                                                                                                                                             1900000012             00000012  
Q0001000000003485000000000000000000000000100000  000015    000000000000ACC202700             HAMILTON LEWIS                                                                                                          PARKROAD STREET                                                                 BIRMINGHAM                                  UK78825              000000000349000000000000000000000349                                                                                                                                                                                                                                                                                                                                 000000000000                                                        3 1623                             000000000000                                                                                                                                                             1900000015             00000013  
Q0001000000001385000000000000000000000000100000  000015    000000000000ACC203000             GRINGOTTS BANK.                                                                                                         RENNWEG 97                                                                      VIENNA                                      AU1010               000000000139000000000000000000000139                                                                                                                                                                                                                                                                                                                                 000000000000                                                        3 2547                             000000000000                                                                                                                                                             1900000001             00000014  
Q0001000000009841000000000000000000000000100000  000015    000000000000ACC203200             GRINGOTTS BANK.                                                                                                         RENNWEG 97                                                                      VIENNA                                      AU1010               000000000984000000000000000000000984                                                                                                                                                                                                                                                                                                                                 000000000000                                                        3 2547                             000000000000                                                                                                                                                             1900000003             00000015  
Q0001000000001582000000000000000000000000100000  000015    000000000000                      UNKNOWN RECIPIENT                                                                                                                                                                                                                                                        000000000158000000000000000000000158      GRINGOTTS BANK.                                                                                                           RENNWEG 97                                                                      VIENNA                                      AU1010                                                               000000000000                                                        3 21                               000000000000                   2547                                                                                                                                      1900000002             00000016  
Q0040000000003548000000000000000000000000100000FR000015    000000000000ACC204600             RONALD GRUMP                                                                                                            RUE DES RICHES 19                                                               PARIS                                       FR53111              000000000355000000000000000000000355                                                                                                                                                                                                                                                                                                                                 000000000000                                                        3 1623                             000000000000                                                                                                                                                             1900000004             00000017  
Q0001000000013633000000000000000000000000100000  000015    000000000000ACC201600             BURNSBANKING                                                                                                            HAUPTSTRASSE 10                                                                 LINZ                                        AU4041     258259637 000000001364000000000000000000001364                                                                                                                                                                                                                                                                                                                                 000000000000                                                        3 1540                             000000000000                                                                                                                                                             1900000010             00000010  
Q0001000000004982000000000000000000000000100000  000015    000000000000ACC201800             BUBBA GUMP SHRIMP CORP.                                                                                                 AM HOF 13                                                                       VIENNA                                      AU1010     125452897 000000000498000000000000000000000498                                                                                                                                                                                                                                                                                                                                 000000000000                                                        3 1540                             000000000000                                                                                                                                                             1900000011             00000011  
Q0001000000008949000000000000000000000000100000  000015    000000000000ACC202000             GEKKO & CO.                                                                                                             RENNGASSE 3                                                                     VIENNA                                      AU1010     15697543  000000000895000000000000000000000895                                                                                                                                                                                                                                                                                                                                 000000000000                                                        3 1540                             000000000000                                                                                                                                                             1900000012             00000012  
Q0001000000003485000000000000000000000000100000  000015    000000000000ACC202700             HAMILTON LEWIS                                                                                                          PARKROAD STREET                                                                 BIRMINGHAM                                  UK78825              000000000349000000000000000000000349                                                                                                                                                                                                                                                                                                                                 000000000000                                                        3 1623                             000000000000                                                                                                                                                             1900000015             00000013  
Q0001000000001385000000000000000000000000100000  000015    000000000000ACC203000             GRINGOTTS BANK.                                                                                                         RENNWEG 97                                                                      VIENNA                                      AU1010               000000000139000000000000000000000139                                                                                                                                                                                                                                                                                                                                 000000000000                                                        3 2547                             000000000000                                                                                                                                                             1900000001             00000014  
Q0001000000009841000000000000000000000000100000  000015    000000000000ACC203200             GRINGOTTS BANK.                                                                                                         RENNWEG 97                                                                      VIENNA                                      AU1010               000000000984000000000000000000000984                                                                                                                                                                                                                                                                                                                                 000000000000                                                        3 2547                             000000000000                                                                                                                                                             1900000003             00000015  
Q0001000000001582000000000000000000000000100000  000015    000000000000                      UNKNOWN RECIPIENT                                                                                                                                                                                                                                                        000000000158000000000000000000000158      GRINGOTTS BANK.                                                                                                           RENNWEG 97                                                                      VIENNA                                      AU1010                                                               000000000000                                                        3 21                               000000000000                   2547                                                                                                                                      1900000002             00000016  
Q0040000000003548000000000000000000000000100000FR000015    000000000000ACC204600             RONALD GRUMP                                                                                                            RUE DES RICHES 19                                                               PARIS                                       FR53111              000000000355000000000000000000000355                                                                                                                                                                                                                                                                                                                                 000000000000                                                        3 1623                             000000000000                                                                                                                                                             1900000004             00000017  
Q0001000000013633000000000000000000000000100000  000015    000000000000ACC201600             BURNSBANKING                                                                                                            HAUPTSTRASSE 10                                                                 LINZ                                        AU4041     258259637 000000001364000000000000000000001364                                                                                                                                                                                                                                                                                                                                 000000000000                                                        3 1540                             000000000000                                                                                                                                                             1900000010             00000010  
Q0001000000004982000000000000000000000000100000  000015    000000000000ACC201800             BUBBA GUMP SHRIMP CORP.                                                                                                 AM HOF 13                                                                       VIENNA                                      AU1010     125452897 000000000498000000000000000000000498                                                                                                                                                                                                                                                                                                                                 000000000000                                                        3 1540                             000000000000                                                                                                                                                             1900000011             00000011  
Q0001000000008949000000000000000000000000100000  000015    000000000000ACC202000             GEKKO & CO.                                                                                                             RENNGASSE 3                                                                     VIENNA                                      AU1010     15697543  000000000895000000000000000000000895                                                                                                                                                                                                                                                                                                                                 000000000000                                                        3 1540                             000000000000                                                                                                                                                             1900000012             00000012  
Q0001000000003485000000000000000000000000100000  000015    000000000000ACC202700             HAMILTON LEWIS                                                                                                          PARKROAD STREET                                                                 BIRMINGHAM                                  UK78825              000000000349000000000000000000000349                                                                                                                                                                                                                                                                                                                                 000000000000                                                        3 1623                             000000000000                                                                                                                                                             1900000015             00000013  
Q0001000000001385000000000000000000000000100000  000015    000000000000ACC203000             GRINGOTTS BANK.                                                                                                         RENNWEG 97                                                                      VIENNA                                      AU1010               000000000139000000000000000000000139                                                                                                                                                                                                                                                                                                                                 000000000000                                                        3 2547                             000000000000                                                                                                                                                             1900000001             00000014  
Q0001000000009841000000000000000000000000100000  000015    000000000000ACC203200             GRINGOTTS BANK.                                                                                                         RENNWEG 97                                                                      VIENNA                                      AU1010               000000000984000000000000000000000984                                                                                                                                                                                                                                                                                                                                 000000000000                                                        3 2547                             000000000000                                                                                                                                                             1900000003             00000015  
Q0001000000001582000000000000000000000000100000  000015    000000000000                      UNKNOWN RECIPIENT                                                                                                                                                                                                                                                        000000000158000000000000000000000158      GRINGOTTS BANK.                                                                                                           RENNWEG 97                                                                      VIENNA                                      AU1010                                                               000000000000                                                        3 21                               000000000000                   2547                                                                                                                                      1900000002             00000016  
Q0040000000003548000000000000000000000000100000FR000015    000000000000ACC204600             RONALD GRUMP                                                                                                            RUE DES RICHES 19                                                               PARIS                                       FR53111              000000000355000000000000000000000355                                                                                                                                                                                                                                                                                                                                 000000000000                                                        3 1623                             000000000000                                                                                                                                                             1900000004             00000017  
Q0001000000013633000000000000000000000000100000  000015    000000000000ACC201600             BURNSBANKING                                                                                                            HAUPTSTRASSE 10                                                                 LINZ                                        AU4041     258259637 000000001364000000000000000000001364                                                                                                                                                                                                                                                                                                                                 000000000000                                                        3 1540                             000000000000                                                                                                                                                             1900000010             00000010  
Q0001000000004982000000000000000000000000100000  000015    000000000000ACC201800             BUBBA GUMP SHRIMP CORP.                                                                                                 AM HOF 13                                                                       VIENNA                                      AU1010     125452897 000000000498000000000000000000000498                                                                                                                                                                                                                                                                                                                                 000000000000                                                        3 1540                             000000000000                                                                                                                                                             1900000011             00000011  
Q0001000000008949000000000000000000000000100000  000015    000000000000ACC202000             GEKKO & CO.                                                                                                             RENNGASSE 3                                                                     VIENNA                                      AU1010     15697543  000000000895000000000000000000000895                                                                                                                                                                                                                                                                                                                                 000000000000                                                        3 1540                             000000000000                                                                                                                                                             1900000012             00000012  
Q0001000000003485000000000000000000000000100000  000015    000000000000ACC202700             HAMILTON LEWIS                                                                                                          PARKROAD STREET                                                                 BIRMINGHAM                                  UK78825              000000000349000000000000000000000349                                                                                                                                                                                                                                                                                                                                 000000000000                                                        3 1623                             000000000000                                                                                                                                                             1900000015             00000013  
Q0001000000001385000000000000000000000000100000  000015    000000000000ACC203000             GRINGOTTS BANK.                                                                                                         RENNWEG 97                                                                      VIENNA                                      AU1010               000000000139000000000000000000000139                                                                                                                                                                                                                                                                                                                                 000000000000                                                        3 2547                             000000000000                                                                                                                                                             1900000001             00000014  
Q0001000000009841000000000000000000000000100000  000015    000000000000ACC203200             GRINGOTTS BANK.                                                                                                         RENNWEG 97                                                                      VIENNA                                      AU1010               000000000984000000000000000000000984                                                                                                                                                                                                                                                                                                                                 000000000000                                                        3 2547                             000000000000                                                                                                                                                             1900000003             00000015  
Q0001000000001582000000000000000000000000100000  000015    000000000000                      UNKNOWN RECIPIENT                                                                                                                                                                                                                                                        000000000158000000000000000000000158      GRINGOTTS BANK.                                                                                                           RENNWEG 97                                                                      VIENNA                                      AU1010                                                               000000000000                                                        3 21                               000000000000                   2547                                                                                                                                      1900000002             00000016  
Q0040000000003548000000000000000000000000100000FR000015    000000000000ACC204600             RONALD GRUMP                                                                                                            RUE DES RICHES 19                                                               PARIS                                       FR53111              000000000355000000000000000000000355                                                                                                                                                                                                                                                                                                                                 000000000000                                                        3 1623                             000000000000                                                                                                                                                             1900000004             00000017  
